:10029D001202FA12033FE4FF1201FD8F2EEFFB7ADB
:1002AD00007515037D017F011202DDAF2E1203A132
:0202BD0080FEC1
:030023000200BA1E
:1000BA00C0E0C0F0C083C082C0D075D000C000C00C
:1000CA0001C002C003C004C005C006C00730982A98
:1000DA00AF991203A185992FE52FFB7A00751503B5
:1000EA007D017F011202DDE52FFD7C00E4FF120293
:1000FA00567F057E0012032BC298D007D006D00582
:10010A00D004D003D002D001D000D0D0D082D08386
:05011A00D0F0D0E0323E
:10032B00EF4E600F7D027CC7DCFEDDFCEF1F70F033
:03033B001E80ED34
:01033E00229C
:1002FA00759850E4F58753890F438920758BFA75F1
:0B030A008DFAC2ABD28ED2AFD2AC2273
:0803A1008F993099FDC29922E9
:06035300C2A58F80D2A7B5
:080359007F027EC7DEFEDFFC1F
:010361002279
:0A037A00C2A6120353C2A7020359E2
:10000300CFCDCFCECCCE1200657C007D0A12006529
:04001300ED2430FFA9
:0A001700D2A6120353C2A702035938
:10031500AE07BE0104ED148006BE0209ED243F447C
:0603250080FF12037A22A2
:10033F007F3812037A7F0C12037A7F0612037A7FBB
:04034F000102037A2A
:0A038400AC03120315AF04020017CA
:06027A008B2B8A2C892D5C
:10028000120315E4FDAB2BAA2CA92D8D82758300DA
:0C029000120026FF60061200170D80E926
:01029C00223F
:0C01CA007F0AEA24FFFDE434FFFC7E0005
:0801D6008E168F178C188D198D
:1001DE007F017E00E4FBEBC39519E5186480F8748B
:0E01EE008098500AAC16AD171200530B80E833
:0101FC0022E0
:0402DD008A138B14E1
:1002E100120315AA15EAD39400400D1201CAAC13EA
:0802F100AD141200031A80EDA8
:0102F90022E2
:10011F00120315C3EA64809480400B7F2B120017E3
:10012F008A1F8B20800E7F2D120017C3E49BF520B2
:10013F00E49AF51FAA1EEAD39400400D1201CAAC2F
:09014F001FAD201200031A80ED1F
:010158002284
:040159008A238B2446
:10015D00120315AA25EAD3940040297F101201CC71
:10016D00AC23AD24CFCDCFCECCCE120065EF540F46
:10017D00FEC3940AEE5004243080022437FF12008F
:04018D00171A80D1EC
:01019100224B
:040192008A288B2903
:10019600120315AA2AEAD394004028EA24FFFDE4B4
:1001A60034FFFC7F027E001201D6AC28AD29CFCDEC
:1001B600CFCECCCE120065EF54012430FF120017CB
:0301C6001A80D2CA
:0101C9002213
:100256008F088C098D0A1203987FA012022D1203B3
:1002660062AF0812022D120362AF0A12022D1203A8
:04027600620203A974
:0201FD008F1160
:1001FF001203987FA012022D120362AF1112022D6B
:10020F001203621203987FA112022D1203621202CF
:0D021F00BF8F127F0112038E1203A9AF12D0
:01022C0022AF
:09039800D2A0D2A1C2A0C2A12290
:0703A900C2A0D2A1D2A022E4
:02022D00AD071B
:10022F00E4FB7E007480A803088006CEA2E713CEFD
:10023F0013D8F8FFEDF582EF558224FF92A0D2A1DB
:06024F00C2A10BBB08DC9C
:010255002286
:1002BF00E4FFD2A0FED2A130A00DA8067480088062
:0D02CF0002C313D8FC4207C2A10EBE08E80E
:0102DC0022FF
:0A038E00EF24FF92A0D2A1C2A12229
:0B036200D2A0D2A1A2A0E433FFC2A1F0
:01036D00226D
:0300000002036E8A
:0C036E00787FE4F6D8FD75812F02029D17
:10002600BB010CE58229F582E5833AF583E022508F
:1000360006E92582F8E622BBFE06E92582F8E222D9
:0D004600E58229F582E5833AF583E49322F3
:10005300EF8DF0A4A8F0CF8CF0A428CE8DF0A42EC1
:02006300FE227B
:10006500BC000BBE0029EF8DF084FFADF022E4CC7F
:10007500F875F008EF2FFFEE33FEEC33FCEE9DEC48
:10008500984005FCEE9DFE0FD5F0E9E4CEFD22ED8E
:10009500F8F5F0EE8420D21CFEADF075F008EF2FD8
:1000A500FFED33FD4007985006D5F0F222C398FDC9
:0500B5000FD5F0EA2266
:00000001FF
