:10000E00140414031401140211020F020F010D0146
:10001E00110C00020D02140414030D011902180133
:10002E001601140214011601140411021201110119
:10003E000F060802140414031401140211020F0215
:10004E000F010D01110A08020D010F0111010F021E
:10005E000D010D010A010D020D010D0308020D0126
:10006E000F0111010F0208010D0214020D010F0301
:10007E0008020D010F0111010F020D010D010A0100
:10008E000D020D010D0308020D010F0111010F02EA
:10009E0008010D0214020D010F0400020D010F01E3
:0F00AE000D071406110619080D060F081108FF9B
:10014900204A0A0000F921F980F9E1FA36FA8CFA15
:10015900D8FB23FB68FBAAFBE9FC23FC5BFC8FFCB7
:10016900C0FCEFFD1BFD45FD6CFD91FDB4FDD5FD0A
:10017900F4FE12FE2EFE47FE60FE78FE8EFEA2FE03
:0D018900B6FEC9FEDAFEEBFEFAFF09FF1715
:1001CB001201FCE50890000E93FFF460208F0905E7
:1001DB0008E5089375F0E6A4FFAEF01202110508CE
:1001EB00C28C7F057E00120211D28C80D6C28C800D
:0101FB00D231
:03000B0002019758
:10019700C0E0C0D075D000C000C006E50925E02446
:1001A7000AF8E6FE08E64E6012E50925E0240AF89B
:1001B700E6FE08E6F58AEEF58CB2A5D006D000D0AB
:0401C700D0D0E03282
:1001FC005389F0438901758A66758CFCC28DD28C4B
:05020C00D2A9D2AF22CF
:10021100EF4E600F7D027CC7DCFEDDFCEF1F70F04E
:030221001E80ED4F
:0102240022B7
:030000000200BD3E
:0C00BD00787FE4F6D8FD75815302010441
:1000C9000201CBE493A3F8E493A34003F68001F281
:1000D90008DFF48029E493A3F85407240CC8C33338
:1000E900C4540F4420C8834004F456800146F6DF07
:1000F900E4800B0102040810204080900149E47E4D
:10010900019360BCA3FF543F30E509541FFEE493FB
:10011900A360010ECF54C025E060A840B8E493A3C2
:10012900FAE493A3F8E493A3C8C582C8CAC583CAED
:10013900F0A3C8C582C8CAC583CADFE9DEE780BEA5
:010196000068
:00000001FF
